{
  "contractName": "Auth",
  "abi": [
    {
      "anonymous": false,
      "inputs": [
        {
          "indexed": false,
          "internalType": "string",
          "name": "email",
          "type": "string"
        },
        {
          "indexed": false,
          "internalType": "string",
          "name": "firstName",
          "type": "string"
        },
        {
          "indexed": false,
          "internalType": "string",
          "name": "lastName",
          "type": "string"
        },
        {
          "indexed": false,
          "internalType": "string",
          "name": "password",
          "type": "string"
        }
      ],
      "name": "userCreated",
      "type": "event"
    },
    {
      "inputs": [],
      "name": "userCount",
      "outputs": [
        {
          "internalType": "uint256",
          "name": "",
          "type": "uint256"
        }
      ],
      "stateMutability": "view",
      "type": "function",
      "constant": true
    },
    {
      "inputs": [
        {
          "internalType": "uint256",
          "name": "",
          "type": "uint256"
        }
      ],
      "name": "userEmails",
      "outputs": [
        {
          "internalType": "string",
          "name": "",
          "type": "string"
        }
      ],
      "stateMutability": "view",
      "type": "function",
      "constant": true
    },
    {
      "inputs": [
        {
          "internalType": "string",
          "name": "",
          "type": "string"
        }
      ],
      "name": "usersList",
      "outputs": [
        {
          "internalType": "string",
          "name": "email",
          "type": "string"
        },
        {
          "internalType": "string",
          "name": "firstName",
          "type": "string"
        },
        {
          "internalType": "string",
          "name": "lastName",
          "type": "string"
        },
        {
          "internalType": "string",
          "name": "password",
          "type": "string"
        }
      ],
      "stateMutability": "view",
      "type": "function",
      "constant": true
    },
    {
      "inputs": [
        {
          "internalType": "string",
          "name": "_email",
          "type": "string"
        },
        {
          "internalType": "string",
          "name": "_firstName",
          "type": "string"
        },
        {
          "internalType": "string",
          "name": "_lastName",
          "type": "string"
        },
        {
          "internalType": "string",
          "name": "_password",
          "type": "string"
        }
      ],
      "name": "createUser",
      "outputs": [],
      "stateMutability": "nonpayable",
      "type": "function"
    },
    {
      "inputs": [
        {
          "internalType": "uint256",
          "name": "index",
          "type": "uint256"
        }
      ],
      "name": "getUserData",
      "outputs": [
        {
          "internalType": "string",
          "name": "",
          "type": "string"
        },
        {
          "internalType": "string",
          "name": "",
          "type": "string"
        },
        {
          "internalType": "string",
          "name": "",
          "type": "string"
        },
        {
          "internalType": "string",
          "name": "",
          "type": "string"
        }
      ],
      "stateMutability": "view",
      "type": "function",
      "constant": true
    }
  ],
  "bytecode": "0x60806040526000805534801561001457600080fd5b50610de3806100246000396000f3fe608060405234801561001057600080fd5b5060043610610084576000357c0100000000000000000000000000000000000000000000000000000000900480634cbce6ac1161006d5780634cbce6ac146100c85780636f7fcddb146100db578063f0dd9c06146100f057600080fd5b806307973ccf146100895780631fef580c146100a5575b600080fd5b61009260005481565b6040519081526020015b60405180910390f35b6100b86100b3366004610a3f565b610110565b60405161009c9493929190610ab4565b6100b86100d6366004610bc8565b6104c6565b6100ee6100e9366004610c05565b610719565b005b6101036100fe366004610a3f565b6108fa565b60405161009c9190610cb2565b6060806060806000548510610186576040517f08c379a000000000000000000000000000000000000000000000000000000000815260206004820152600d60248201527f496e76616c696420696e6465780000000000000000000000000000000000000060448201526064015b60405180910390fd5b60006002868154811061019b5761019b610ccc565b9060005260206000200180546101b090610cfb565b80601f01602080910402602001604051908101604052809291908181526020018280546101dc90610cfb565b80156102295780601f106101fe57610100808354040283529160200191610229565b820191906000526020600020905b81548152906001019060200180831161020c57829003601f168201915b5050505050905060006001826040516102429190610d4f565b908152602001604051809103902060405180608001604052908160008201805461026b90610cfb565b80601f016020809104026020016040519081016040528092919081815260200182805461029790610cfb565b80156102e45780601f106102b9576101008083540402835291602001916102e4565b820191906000526020600020905b8154815290600101906020018083116102c757829003601f168201915b505050505081526020016001820180546102fd90610cfb565b80601f016020809104026020016040519081016040528092919081815260200182805461032990610cfb565b80156103765780601f1061034b57610100808354040283529160200191610376565b820191906000526020600020905b81548152906001019060200180831161035957829003601f168201915b5050505050815260200160028201805461038f90610cfb565b80601f01602080910402602001604051908101604052809291908181526020018280546103bb90610cfb565b80156104085780601f106103dd57610100808354040283529160200191610408565b820191906000526020600020905b8154815290600101906020018083116103eb57829003601f168201915b5050505050815260200160038201805461042190610cfb565b80601f016020809104026020016040519081016040528092919081815260200182805461044d90610cfb565b801561049a5780601f1061046f5761010080835404028352916020019161049a565b820191906000526020600020905b81548152906001019060200180831161047d57829003601f168201915b505050505081525050905081816020015182604001518360600151955095509550955050509193509193565b80516020818301810180516001825292820191909301209152805481906104ec90610cfb565b80601f016020809104026020016040519081016040528092919081815260200182805461051890610cfb565b80156105655780601f1061053a57610100808354040283529160200191610565565b820191906000526020600020905b81548152906001019060200180831161054857829003601f168201915b50505050509080600101805461057a90610cfb565b80601f01602080910402602001604051908101604052809291908181526020018280546105a690610cfb565b80156105f35780601f106105c8576101008083540402835291602001916105f3565b820191906000526020600020905b8154815290600101906020018083116105d657829003601f168201915b50505050509080600201805461060890610cfb565b80601f016020809104026020016040519081016040528092919081815260200182805461063490610cfb565b80156106815780601f1061065657610100808354040283529160200191610681565b820191906000526020600020905b81548152906001019060200180831161066457829003601f168201915b50505050509080600301805461069690610cfb565b80601f01602080910402602001604051908101604052809291908181526020018280546106c290610cfb565b801561070f5780601f106106e45761010080835404028352916020019161070f565b820191906000526020600020905b8154815290600101906020018083116106f257829003601f168201915b5050505050905084565b8360018160405161072a9190610d4f565b908152604051908190036020019020805461074490610cfb565b1590506107ad576040517f08c379a000000000000000000000000000000000000000000000000000000000815260206004820152601260248201527f456d61696c20616c726561647920757365640000000000000000000000000000604482015260640161017d565b6000805490806107bc83610d6b565b91905055506040518060800160405280868152602001858152602001848152602001838152506001866040516107f29190610d4f565b9081526020016040518091039020600082015181600001908051906020019061081c9291906109a6565b50602082810151805161083592600185019201906109a6565b50604082015180516108519160028401916020909101906109a6565b506060820151805161086d9160038401916020909101906109a6565b50506002805460018101825560009190915286516108b592507f405787fa12a823e0f2b7631cc41b3ba8828b3321ca811111fa75cd3aa3bb5ace9091019060208801906109a6565b507f2f41e0cd6bdaeefa07c19fdeb8877382f42bebe51754c35e5543d87a7a7145cb858585856040516108eb9493929190610ab4565b60405180910390a15050505050565b6002818154811061090a57600080fd5b90600052602060002001600091509050805461092590610cfb565b80601f016020809104026020016040519081016040528092919081815260200182805461095190610cfb565b801561099e5780601f106109735761010080835404028352916020019161099e565b820191906000526020600020905b81548152906001019060200180831161098157829003601f168201915b505050505081565b8280546109b290610cfb565b90600052602060002090601f0160209004810192826109d45760008555610a1a565b82601f106109ed57805160ff1916838001178555610a1a565b82800160010185558215610a1a579182015b82811115610a1a5782518255916020019190600101906109ff565b50610a26929150610a2a565b5090565b5b80821115610a265760008155600101610a2b565b600060208284031215610a5157600080fd5b5035919050565b60005b83811015610a73578181015183820152602001610a5b565b83811115610a82576000848401525b50505050565b60008151808452610aa0816020860160208601610a58565b601f01601f19169290920160200192915050565b608081526000610ac76080830187610a88565b8281036020840152610ad98187610a88565b90508281036040840152610aed8186610a88565b90508281036060840152610b018185610a88565b979650505050505050565b7f4e487b7100000000000000000000000000000000000000000000000000000000600052604160045260246000fd5b600082601f830112610b4c57600080fd5b813567ffffffffffffffff80821115610b6757610b67610b0c565b604051601f8301601f19908116603f01168101908282118183101715610b8f57610b8f610b0c565b81604052838152866020858801011115610ba857600080fd5b836020870160208301376000602085830101528094505050505092915050565b600060208284031215610bda57600080fd5b813567ffffffffffffffff811115610bf157600080fd5b610bfd84828501610b3b565b949350505050565b60008060008060808587031215610c1b57600080fd5b843567ffffffffffffffff80821115610c3357600080fd5b610c3f88838901610b3b565b95506020870135915080821115610c5557600080fd5b610c6188838901610b3b565b94506040870135915080821115610c7757600080fd5b610c8388838901610b3b565b93506060870135915080821115610c9957600080fd5b50610ca687828801610b3b565b91505092959194509250565b602081526000610cc56020830184610a88565b9392505050565b7f4e487b7100000000000000000000000000000000000000000000000000000000600052603260045260246000fd5b600281046001821680610d0f57607f821691505b60208210811415610d49577f4e487b7100000000000000000000000000000000000000000000000000000000600052602260045260246000fd5b50919050565b60008251610d61818460208701610a58565b9190910192915050565b6000600019821415610da6577f4e487b7100000000000000000000000000000000000000000000000000000000600052601160045260246000fd5b506001019056fea2646970667358221220ee259a845b712d5dbdaa45fef16997e69e979f453c756f991bb0d0c5f444b55964736f6c634300080c0033",
  "immutableReferences": {},
  "source": "// SPDX-License-Identifier: MIT\r\npragma solidity >=0.4.22 <0.9.0;\r\n\r\ncontract Auth {\r\n    uint public userCount = 0;\r\n\r\n    mapping(string => user) public usersList;\r\n    string[] public userEmails; // Keep track of user emails for indexing\r\n\r\n    struct user {\r\n        string email;\r\n        string firstName;\r\n        string lastName;\r\n        string password;\r\n    }\r\n\r\n    // events\r\n\r\n    event userCreated(\r\n        string email,\r\n        string firstName,\r\n        string lastName,\r\n        string password\r\n    );\r\n\r\n    function createUser(\r\n        string memory _email,\r\n        string memory _firstName,\r\n        string memory _lastName,\r\n        string memory _password\r\n    ) public emailNotUsed(_email) {\r\n        userCount++;\r\n\r\n        usersList[_email] = user(_email, _firstName, _lastName, _password);\r\n        userEmails.push(_email);\r\n        emit userCreated(_email, _firstName, _lastName, _password);\r\n    }\r\n\r\n    modifier emailNotUsed(string memory _email) {\r\n        require(\r\n            bytes(usersList[_email].email).length == 0,\r\n            \"Email already used\"\r\n        );\r\n        _;\r\n    }\r\n    function getUserData(uint index) public view returns (string memory, string memory, string memory, string memory) {\r\n        require(index < userCount, \"Invalid index\");\r\n        string memory email = userEmails[index];\r\n        user memory userData = usersList[email];\r\n        return (email, userData.firstName, userData.lastName, userData.password);\r\n    }\r\n}\r\n",
  "sourcePath": "C:\\FinalProject_Voting_Blockchain_system\\backend\\truffle\\contracts\\Auth.sol",
  "compiler": {
    "name": "solc",
    "version": "0.8.12+commit.f00d7308.Emscripten.clang"
  },
  "schemaVersion": "3.4.16",
  "updatedAt": "2024-01-24T23:11:01.541Z",
  "networkType": "ethereum",
  "devdoc": {
    "kind": "dev",
    "methods": {},
    "version": 1
  },
  "userdoc": {
    "kind": "user",
    "methods": {},
    "version": 1
  }
}