{
  "contractName": "VotingSystem",
  "abi": [
    {
      "anonymous": false,
      "inputs": [
        {
          "indexed": false,
          "internalType": "string",
          "name": "uuid",
          "type": "string"
        },
        {
          "indexed": false,
          "internalType": "string",
          "name": "email",
          "type": "string"
        },
        {
          "indexed": false,
          "internalType": "string",
          "name": "choice",
          "type": "string"
        },
        {
          "indexed": false,
          "internalType": "string",
          "name": "pin",
          "type": "string"
        },
        {
          "indexed": false,
          "internalType": "string",
          "name": "invitationType",
          "type": "string"
        },
        {
          "indexed": false,
          "internalType": "string",
          "name": "voteTime",
          "type": "string"
        }
      ],
      "name": "Voted",
      "type": "event"
    },
    {
      "inputs": [
        {
          "internalType": "string",
          "name": "",
          "type": "string"
        },
        {
          "internalType": "string",
          "name": "",
          "type": "string"
        }
      ],
      "name": "hasPinVoted",
      "outputs": [
        {
          "internalType": "bool",
          "name": "",
          "type": "bool"
        }
      ],
      "stateMutability": "view",
      "type": "function",
      "constant": true
    },
    {
      "inputs": [
        {
          "internalType": "string",
          "name": "",
          "type": "string"
        },
        {
          "internalType": "address",
          "name": "",
          "type": "address"
        }
      ],
      "name": "hasVoted",
      "outputs": [
        {
          "internalType": "bool",
          "name": "",
          "type": "bool"
        }
      ],
      "stateMutability": "view",
      "type": "function",
      "constant": true
    },
    {
      "inputs": [
        {
          "internalType": "uint256",
          "name": "",
          "type": "uint256"
        }
      ],
      "name": "topicIds",
      "outputs": [
        {
          "internalType": "string",
          "name": "",
          "type": "string"
        }
      ],
      "stateMutability": "view",
      "type": "function",
      "constant": true
    },
    {
      "inputs": [
        {
          "internalType": "string",
          "name": "",
          "type": "string"
        }
      ],
      "name": "topics",
      "outputs": [
        {
          "components": [
            {
              "internalType": "string",
              "name": "id",
              "type": "string"
            },
            {
              "internalType": "string",
              "name": "image",
              "type": "string"
            },
            {
              "internalType": "string",
              "name": "durationType",
              "type": "string"
            },
            {
              "internalType": "string",
              "name": "createdBy",
              "type": "string"
            },
            {
              "internalType": "string",
              "name": "link",
              "type": "string"
            },
            {
              "internalType": "string",
              "name": "ballotType",
              "type": "string"
            },
            {
              "internalType": "string",
              "name": "invitationType",
              "type": "string"
            },
            {
              "components": [
                {
                  "internalType": "string",
                  "name": "choice",
                  "type": "string"
                },
                {
                  "internalType": "uint256",
                  "name": "score",
                  "type": "uint256"
                },
                {
                  "internalType": "string[]",
                  "name": "voters",
                  "type": "string[]"
                }
              ],
              "internalType": "struct VotingSystem.Choice[]",
              "name": "choices",
              "type": "tuple[]"
            },
            {
              "components": [
                {
                  "internalType": "string",
                  "name": "email",
                  "type": "string"
                },
                {
                  "internalType": "string",
                  "name": "firstName",
                  "type": "string"
                },
                {
                  "internalType": "string",
                  "name": "lastName",
                  "type": "string"
                },
                {
                  "internalType": "uint256",
                  "name": "voteWeight",
                  "type": "uint256"
                },
                {
                  "internalType": "string",
                  "name": "voteKey",
                  "type": "string"
                },
                {
                  "internalType": "string",
                  "name": "voteTime",
                  "type": "string"
                }
              ],
              "internalType": "struct VotingSystem.EmailList[]",
              "name": "emailList",
              "type": "tuple[]"
            },
            {
              "internalType": "string",
              "name": "pollStatus",
              "type": "string"
            }
          ],
          "internalType": "struct VotingSystem.NewTitle",
          "name": "newtitle",
          "type": "tuple"
        }
      ],
      "stateMutability": "view",
      "type": "function",
      "constant": true
    },
    {
      "inputs": [
        {
          "internalType": "string",
          "name": "_uuid",
          "type": "string"
        },
        {
          "components": [
            {
              "internalType": "string",
              "name": "id",
              "type": "string"
            },
            {
              "internalType": "string",
              "name": "image",
              "type": "string"
            },
            {
              "internalType": "string",
              "name": "durationType",
              "type": "string"
            },
            {
              "internalType": "string",
              "name": "createdBy",
              "type": "string"
            },
            {
              "internalType": "string",
              "name": "link",
              "type": "string"
            },
            {
              "internalType": "string",
              "name": "ballotType",
              "type": "string"
            },
            {
              "internalType": "string",
              "name": "invitationType",
              "type": "string"
            },
            {
              "components": [
                {
                  "internalType": "string",
                  "name": "choice",
                  "type": "string"
                },
                {
                  "internalType": "uint256",
                  "name": "score",
                  "type": "uint256"
                },
                {
                  "internalType": "string[]",
                  "name": "voters",
                  "type": "string[]"
                }
              ],
              "internalType": "struct VotingSystem.Choice[]",
              "name": "choices",
              "type": "tuple[]"
            },
            {
              "components": [
                {
                  "internalType": "string",
                  "name": "email",
                  "type": "string"
                },
                {
                  "internalType": "string",
                  "name": "firstName",
                  "type": "string"
                },
                {
                  "internalType": "string",
                  "name": "lastName",
                  "type": "string"
                },
                {
                  "internalType": "uint256",
                  "name": "voteWeight",
                  "type": "uint256"
                },
                {
                  "internalType": "string",
                  "name": "voteKey",
                  "type": "string"
                },
                {
                  "internalType": "string",
                  "name": "voteTime",
                  "type": "string"
                }
              ],
              "internalType": "struct VotingSystem.EmailList[]",
              "name": "emailList",
              "type": "tuple[]"
            },
            {
              "internalType": "string",
              "name": "pollStatus",
              "type": "string"
            }
          ],
          "internalType": "struct VotingSystem.NewTitle",
          "name": "_newtitle",
          "type": "tuple"
        }
      ],
      "name": "addTopic",
      "outputs": [],
      "stateMutability": "nonpayable",
      "type": "function"
    },
    {
      "inputs": [
        {
          "internalType": "string",
          "name": "_pollId",
          "type": "string"
        },
        {
          "components": [
            {
              "internalType": "string",
              "name": "email",
              "type": "string"
            },
            {
              "internalType": "string",
              "name": "firstName",
              "type": "string"
            },
            {
              "internalType": "string",
              "name": "lastName",
              "type": "string"
            },
            {
              "internalType": "uint256",
              "name": "voteWeight",
              "type": "uint256"
            },
            {
              "internalType": "string",
              "name": "voteKey",
              "type": "string"
            },
            {
              "internalType": "string",
              "name": "voteTime",
              "type": "string"
            }
          ],
          "internalType": "struct VotingSystem.EmailList",
          "name": "_newUser",
          "type": "tuple"
        }
      ],
      "name": "addUserToPoll",
      "outputs": [],
      "stateMutability": "nonpayable",
      "type": "function"
    },
    {
      "inputs": [
        {
          "internalType": "string",
          "name": "_uuid",
          "type": "string"
        },
        {
          "internalType": "string",
          "name": "_pollStatus",
          "type": "string"
        }
      ],
      "name": "updateStatus",
      "outputs": [],
      "stateMutability": "nonpayable",
      "type": "function"
    },
    {
      "inputs": [
        {
          "internalType": "bytes32",
          "name": "_bytes32",
          "type": "bytes32"
        }
      ],
      "name": "bytes32ToString",
      "outputs": [
        {
          "internalType": "string",
          "name": "",
          "type": "string"
        }
      ],
      "stateMutability": "pure",
      "type": "function",
      "constant": true
    },
    {
      "inputs": [
        {
          "internalType": "string",
          "name": "_uuid",
          "type": "string"
        },
        {
          "internalType": "string",
          "name": "_email",
          "type": "string"
        },
        {
          "internalType": "string[]",
          "name": "_choices",
          "type": "string[]"
        },
        {
          "internalType": "string",
          "name": "_pin",
          "type": "string"
        },
        {
          "internalType": "string",
          "name": "_invitationType",
          "type": "string"
        },
        {
          "internalType": "string",
          "name": "_voteTime",
          "type": "string"
        }
      ],
      "name": "voteForChoice",
      "outputs": [],
      "stateMutability": "nonpayable",
      "type": "function"
    },
    {
      "inputs": [
        {
          "internalType": "string",
          "name": "_uuid",
          "type": "string"
        }
      ],
      "name": "getTopic",
      "outputs": [
        {
          "components": [
            {
              "components": [
                {
                  "internalType": "string",
                  "name": "id",
                  "type": "string"
                },
                {
                  "internalType": "string",
                  "name": "image",
                  "type": "string"
                },
                {
                  "internalType": "string",
                  "name": "durationType",
                  "type": "string"
                },
                {
                  "internalType": "string",
                  "name": "createdBy",
                  "type": "string"
                },
                {
                  "internalType": "string",
                  "name": "link",
                  "type": "string"
                },
                {
                  "internalType": "string",
                  "name": "ballotType",
                  "type": "string"
                },
                {
                  "internalType": "string",
                  "name": "invitationType",
                  "type": "string"
                },
                {
                  "components": [
                    {
                      "internalType": "string",
                      "name": "choice",
                      "type": "string"
                    },
                    {
                      "internalType": "uint256",
                      "name": "score",
                      "type": "uint256"
                    },
                    {
                      "internalType": "string[]",
                      "name": "voters",
                      "type": "string[]"
                    }
                  ],
                  "internalType": "struct VotingSystem.Choice[]",
                  "name": "choices",
                  "type": "tuple[]"
                },
                {
                  "components": [
                    {
                      "internalType": "string",
                      "name": "email",
                      "type": "string"
                    },
                    {
                      "internalType": "string",
                      "name": "firstName",
                      "type": "string"
                    },
                    {
                      "internalType": "string",
                      "name": "lastName",
                      "type": "string"
                    },
                    {
                      "internalType": "uint256",
                      "name": "voteWeight",
                      "type": "uint256"
                    },
                    {
                      "internalType": "string",
                      "name": "voteKey",
                      "type": "string"
                    },
                    {
                      "internalType": "string",
                      "name": "voteTime",
                      "type": "string"
                    }
                  ],
                  "internalType": "struct VotingSystem.EmailList[]",
                  "name": "emailList",
                  "type": "tuple[]"
                },
                {
                  "internalType": "string",
                  "name": "pollStatus",
                  "type": "string"
                }
              ],
              "internalType": "struct VotingSystem.NewTitle",
              "name": "newtitle",
              "type": "tuple"
            }
          ],
          "internalType": "struct VotingSystem.VoteTopic",
          "name": "",
          "type": "tuple"
        }
      ],
      "stateMutability": "view",
      "type": "function",
      "constant": true
    },
    {
      "inputs": [],
      "name": "getTotalTopics",
      "outputs": [
        {
          "internalType": "uint256",
          "name": "",
          "type": "uint256"
        }
      ],
      "stateMutability": "view",
      "type": "function",
      "constant": true
    }
  ],
  "bytecode": "0x608060405234801561001057600080fd5b50613364806100206000396000f3fe608060405234801561001057600080fd5b50600436106100e6576000357c01000000000000000000000000000000000000000000000000000000009004806398ada00b1161009e578063bd5c777411610078578063bd5c7774146101e3578063ccee5e8c1461022e578063f75c6c721461023f57600080fd5b806398ada00b1461016f5780639af06cd914610182578063a4a514e6146101d057600080fd5b8063474502d8116100cf578063474502d81461012957806361eff0c1146101495780639201de551461015c57600080fd5b8063347047cc146100eb5780633816400714610100575b600080fd5b6100fe6100f93660046126ac565b61025f565b005b61011361010e366004612710565b61029c565b6040516101209190612785565b60405180910390f35b61013c610137366004612798565b610348565b6040516101209190612a80565b6100fe610157366004612b83565b610d31565b61011361016a366004612710565b610e99565b6100fe61017d366004612c8e565b6110bd565b6101c0610190366004612d83565b81516020818401810180516002825292820194820194909420919093529091526000908152604090205460ff1681565b6040519015158152602001610120565b6100fe6101de366004612f51565b611591565b6101c06101f13660046126ac565b8151602081840181018051600382529282019482019490942091909352815180830184018051928152908401929093019190912091525460ff1681565b600154604051908152602001610120565b61025261024d366004612798565b6119e8565b604051610120919061312e565b806000836040516102709190613141565b908152602001604051809103902060000160090190805190602001906102979291906123ba565b505050565b600181815481106102ac57600080fd5b9060005260206000200160009150905080546102c79061315d565b80601f01602080910402602001604051908101604052809291908181526020018280546102f39061315d565b80156103405780601f1061031557610100808354040283529160200191610340565b820191906000526020600020905b81548152906001019060200180831161032357829003601f168201915b505050505081565b61035061243e565b6000826040516103609190613141565b9081526040805191829003602090810183206101608401909252815483918201908390829082906103909061315d565b80601f01602080910402602001604051908101604052809291908181526020018280546103bc9061315d565b80156104095780601f106103de57610100808354040283529160200191610409565b820191906000526020600020905b8154815290600101906020018083116103ec57829003601f168201915b505050505081526020016001820180546104229061315d565b80601f016020809104026020016040519081016040528092919081815260200182805461044e9061315d565b801561049b5780601f106104705761010080835404028352916020019161049b565b820191906000526020600020905b81548152906001019060200180831161047e57829003601f168201915b505050505081526020016002820180546104b49061315d565b80601f01602080910402602001604051908101604052809291908181526020018280546104e09061315d565b801561052d5780601f106105025761010080835404028352916020019161052d565b820191906000526020600020905b81548152906001019060200180831161051057829003601f168201915b505050505081526020016003820180546105469061315d565b80601f01602080910402602001604051908101604052809291908181526020018280546105729061315d565b80156105bf5780601f10610594576101008083540402835291602001916105bf565b820191906000526020600020905b8154815290600101906020018083116105a257829003601f168201915b505050505081526020016004820180546105d89061315d565b80601f01602080910402602001604051908101604052809291908181526020018280546106049061315d565b80156106515780601f1061062657610100808354040283529160200191610651565b820191906000526020600020905b81548152906001019060200180831161063457829003601f168201915b5050505050815260200160058201805461066a9061315d565b80601f01602080910402602001604051908101604052809291908181526020018280546106969061315d565b80156106e35780601f106106b8576101008083540402835291602001916106e3565b820191906000526020600020905b8154815290600101906020018083116106c657829003601f168201915b505050505081526020016006820180546106fc9061315d565b80601f01602080910402602001604051908101604052809291908181526020018280546107289061315d565b80156107755780601f1061074a57610100808354040283529160200191610775565b820191906000526020600020905b81548152906001019060200180831161075857829003601f168201915b5050505050815260200160078201805480602002602001604051908101604052809291908181526020016000905b8282101561094a57838290600052602060002090600302016040518060600160405290816000820180546107d69061315d565b80601f01602080910402602001604051908101604052809291908181526020018280546108029061315d565b801561084f5780601f106108245761010080835404028352916020019161084f565b820191906000526020600020905b81548152906001019060200180831161083257829003601f168201915b505050505081526020016001820154815260200160028201805480602002602001604051908101604052809291908181526020016000905b828210156109335783829060005260206000200180546108a69061315d565b80601f01602080910402602001604051908101604052809291908181526020018280546108d29061315d565b801561091f5780601f106108f45761010080835404028352916020019161091f565b820191906000526020600020905b81548152906001019060200180831161090257829003601f168201915b505050505081526020019060010190610887565b5050505081525050815260200190600101906107a3565b50505050815260200160088201805480602002602001604051908101604052809291908181526020016000905b82821015610c8d57838290600052602060002090600602016040518060c00160405290816000820180546109aa9061315d565b80601f01602080910402602001604051908101604052809291908181526020018280546109d69061315d565b8015610a235780601f106109f857610100808354040283529160200191610a23565b820191906000526020600020905b815481529060010190602001808311610a0657829003601f168201915b50505050508152602001600182018054610a3c9061315d565b80601f0160208091040260200160405190810160405280929190818152602001828054610a689061315d565b8015610ab55780601f10610a8a57610100808354040283529160200191610ab5565b820191906000526020600020905b815481529060010190602001808311610a9857829003601f168201915b50505050508152602001600282018054610ace9061315d565b80601f0160208091040260200160405190810160405280929190818152602001828054610afa9061315d565b8015610b475780601f10610b1c57610100808354040283529160200191610b47565b820191906000526020600020905b815481529060010190602001808311610b2a57829003601f168201915b5050505050815260200160038201548152602001600482018054610b6a9061315d565b80601f0160208091040260200160405190810160405280929190818152602001828054610b969061315d565b8015610be35780601f10610bb857610100808354040283529160200191610be3565b820191906000526020600020905b815481529060010190602001808311610bc657829003601f168201915b50505050508152602001600582018054610bfc9061315d565b80601f0160208091040260200160405190810160405280929190818152602001828054610c289061315d565b8015610c755780601f10610c4a57610100808354040283529160200191610c75565b820191906000526020600020905b815481529060010190602001808311610c5857829003601f168201915b50505050508152505081526020019060010190610977565b505050508152602001600982018054610ca59061315d565b80601f0160208091040260200160405190810160405280929190818152602001828054610cd19061315d565b8015610d1e5780601f10610cf357610100808354040283529160200191610d1e565b820191906000526020600020905b815481529060010190602001808311610d0157829003601f168201915b5050509190925250505090525092915050565b60008083604051610d429190613141565b9081526040519081900360200190208054610d5c9061315d565b905011610dc9576040517f08c379a000000000000000000000000000000000000000000000000000000000815260206004820152601360248201527f506f6c6c20646f6573206e6f7420657869737400000000000000000000000000604482015260640160405180910390fd5b600082604051610dd99190613141565b908152604051602091819003820190206008018054600181018255600091825290829020835180518594600690940290920192610e1b928492909101906123ba565b506020828101518051610e3492600185019201906123ba565b5060408201518051610e509160028401916020909101906123ba565b506060820151600382015560808201518051610e769160048401916020909101906123ba565b5060a08201518051610e929160058401916020909101906123ba565b5050505050565b606060005b60208160ff16108015610f2d5750828160ff1660208110610ec157610ec16131b1565b1a7f0100000000000000000000000000000000000000000000000000000000000000027effffffffffffffffffffffffffffffffffffffffffffffffffffffffffffff191660007f01000000000000000000000000000000000000000000000000000000000000000214155b15610f445780610f3c8161320f565b915050610e9e565b60008160ff1667ffffffffffffffff811115610f6257610f6261256c565b6040519080825280601f01601f191660200182016040528015610f8c576020820181803683370190505b509050600091505b60208260ff161080156110235750838260ff1660208110610fb757610fb76131b1565b1a7f0100000000000000000000000000000000000000000000000000000000000000027effffffffffffffffffffffffffffffffffffffffffffffffffffffffffffff191660007f01000000000000000000000000000000000000000000000000000000000000000214155b156110b657838260ff166020811061103d5761103d6131b1565b1a7f010000000000000000000000000000000000000000000000000000000000000002818360ff1681518110611075576110756131b1565b60200101907effffffffffffffffffffffffffffffffffffffffffffffffffffffffffffff1916908160001a905350816110ae8161320f565b925050610f94565b9392505050565b6000805b6000886040516110d19190613141565b908152604051908190036020019020600801548110156112a857866040516020016110fc9190613141565b604051602081830303815290604052805190602001206000896040516111229190613141565b90815260200160405180910390206000016008018281548110611147576111476131b1565b9060005260206000209060060201600001604051602001611168919061322f565b604051602081830303815290604052805190602001201415611296576000886040516111949190613141565b908152602001604051809103902060000160080181815481106111b9576111b96131b1565b90600052602060002090600602016003015460011415611291576001915060016000896040516111e99190613141565b9081526020016040518091039020600001600801828154811061120e5761120e6131b1565b9060005260206000209060060201600301600082825461122e91906132e4565b92505081905550826000896040516112469190613141565b9081526020016040518091039020600001600801828154811061126b5761126b6131b1565b9060005260206000209060060201600501908051906020019061128f9291906123ba565b505b6112a8565b806112a0816132fb565b9150506110c1565b5060005b6000886040516112bc9190613141565b908152604051908190036020019020600701548110156115875760005b8651811015611574578681815181106112f4576112f46131b1565b602002602001015160405160200161130c9190613141565b6040516020818303038152906040528051906020012060008a6040516113329190613141565b90815260200160405180910390206000016007018381548110611357576113576131b1565b9060005260206000209060030201600001604051602001611378919061322f565b604051602081830303815290604052805190602001201415611562576040517f656d61696c000000000000000000000000000000000000000000000000000000602082015260250160405160208183030381529060405280519060200120856040516020016113e79190613141565b604051602081830303815290604052805190602001201480156114075750825b156114dc57600160008a60405161141e9190613141565b90815260200160405180910390206000016007018381548110611443576114436131b1565b906000526020600020906003020160010160008282546114639190613316565b9091555050604051600090611479908b90613141565b9081526020016040518091039020600001600701828154811061149e5761149e6131b1565b600091825260208083206002600390930201919091018054600181018255908352918190208a516114d69391909101918b01906123ba565b50611574565b6040517f70696e636f6465000000000000000000000000000000000000000000000000006020820152602701604051602081830303815290604052805190602001208560405160200161152f9190613141565b60405160208183030381529060405280519060200120141561155d57600160008a60405161141e9190613141565b611574565b8061156c816132fb565b9150506112d9565b508061157f816132fb565b9150506112ac565b5050505050505050565b80516040516000906115a4908590613141565b908152602001604051809103902060000160000190805190602001906115cb9291906123ba565b5080602001516000836040516115e19190613141565b908152602001604051809103902060000160010190805190602001906116089291906123ba565b50806040015160008360405161161e9190613141565b908152602001604051809103902060000160020190805190602001906116459291906123ba565b50806060015160008360405161165b9190613141565b908152602001604051809103902060000160030190805190602001906116829291906123ba565b5080608001516000836040516116989190613141565b908152602001604051809103902060000160040190805190602001906116bf9291906123ba565b508060a001516000836040516116d59190613141565b908152602001604051809103902060000160050190805190602001906116fc9291906123ba565b508060c001516000836040516117129190613141565b908152602001604051809103902060000160060190805190602001906117399291906123ba565b508061012001516000836040516117509190613141565b908152602001604051809103902060000160090190805190602001906117779291906123ba565b5060005b8160e00151518110156118545760008260e0015182815181106117a0576117a06131b1565b602002602001015190506000846040516117ba9190613141565b908152604080516020928190038301812060608201835284518252848401518483015284830151928201929092526007909101805460018101825560009182529083902082518051939460039093029091019261181a92849201906123ba565b5060208281015160018301556040830151805161183d92600285019201906124a4565b50505050808061184c906132fb565b91505061177b565b5060005b816101000151518110156119a5576000826101000151828151811061187f5761187f6131b1565b602002602001015190506000846040516118999190613141565b908152604080516020928190038301812060c0820183528451825284840151848301528483015192820192909252606080850151908201526080808501519082015260a080850151908201526008909101805460018101825560009182529083902082518051939460069093029091019261191792849201906123ba565b50602082810151805161193092600185019201906123ba565b506040820151805161194c9160028401916020909101906123ba565b5060608201516003820155608082015180516119729160048401916020909101906123ba565b5060a0820151805161198e9160058401916020909101906123ba565b50505050808061199d906132fb565b915050611858565b506001805480820182556000919091528251610297917fb10e2d527612073b26eecdfd717e6a320cf44b4afac2b0732d9fcbe2b7fa0cf6019060208501906123ba565b805160208183018101805160008252928201919093012091526040805161014081019091528154829082908290611a1e9061315d565b80601f0160208091040260200160405190810160405280929190818152602001828054611a4a9061315d565b8015611a975780601f10611a6c57610100808354040283529160200191611a97565b820191906000526020600020905b815481529060010190602001808311611a7a57829003601f168201915b50505050508152602001600182018054611ab09061315d565b80601f0160208091040260200160405190810160405280929190818152602001828054611adc9061315d565b8015611b295780601f10611afe57610100808354040283529160200191611b29565b820191906000526020600020905b815481529060010190602001808311611b0c57829003601f168201915b50505050508152602001600282018054611b429061315d565b80601f0160208091040260200160405190810160405280929190818152602001828054611b6e9061315d565b8015611bbb5780601f10611b9057610100808354040283529160200191611bbb565b820191906000526020600020905b815481529060010190602001808311611b9e57829003601f168201915b50505050508152602001600382018054611bd49061315d565b80601f0160208091040260200160405190810160405280929190818152602001828054611c009061315d565b8015611c4d5780601f10611c2257610100808354040283529160200191611c4d565b820191906000526020600020905b815481529060010190602001808311611c3057829003601f168201915b50505050508152602001600482018054611c669061315d565b80601f0160208091040260200160405190810160405280929190818152602001828054611c929061315d565b8015611cdf5780601f10611cb457610100808354040283529160200191611cdf565b820191906000526020600020905b815481529060010190602001808311611cc257829003601f168201915b50505050508152602001600582018054611cf89061315d565b80601f0160208091040260200160405190810160405280929190818152602001828054611d249061315d565b8015611d715780601f10611d4657610100808354040283529160200191611d71565b820191906000526020600020905b815481529060010190602001808311611d5457829003601f168201915b50505050508152602001600682018054611d8a9061315d565b80601f0160208091040260200160405190810160405280929190818152602001828054611db69061315d565b8015611e035780601f10611dd857610100808354040283529160200191611e03565b820191906000526020600020905b815481529060010190602001808311611de657829003601f168201915b5050505050815260200160078201805480602002602001604051908101604052809291908181526020016000905b82821015611fd85783829060005260206000209060030201604051806060016040529081600082018054611e649061315d565b80601f0160208091040260200160405190810160405280929190818152602001828054611e909061315d565b8015611edd5780601f10611eb257610100808354040283529160200191611edd565b820191906000526020600020905b815481529060010190602001808311611ec057829003601f168201915b505050505081526020016001820154815260200160028201805480602002602001604051908101604052809291908181526020016000905b82821015611fc1578382906000526020600020018054611f349061315d565b80601f0160208091040260200160405190810160405280929190818152602001828054611f609061315d565b8015611fad5780601f10611f8257610100808354040283529160200191611fad565b820191906000526020600020905b815481529060010190602001808311611f9057829003601f168201915b505050505081526020019060010190611f15565b505050508152505081526020019060010190611e31565b50505050815260200160088201805480602002602001604051908101604052809291908181526020016000905b8282101561231b57838290600052602060002090600602016040518060c00160405290816000820180546120389061315d565b80601f01602080910402602001604051908101604052809291908181526020018280546120649061315d565b80156120b15780601f10612086576101008083540402835291602001916120b1565b820191906000526020600020905b81548152906001019060200180831161209457829003601f168201915b505050505081526020016001820180546120ca9061315d565b80601f01602080910402602001604051908101604052809291908181526020018280546120f69061315d565b80156121435780601f1061211857610100808354040283529160200191612143565b820191906000526020600020905b81548152906001019060200180831161212657829003601f168201915b5050505050815260200160028201805461215c9061315d565b80601f01602080910402602001604051908101604052809291908181526020018280546121889061315d565b80156121d55780601f106121aa576101008083540402835291602001916121d5565b820191906000526020600020905b8154815290600101906020018083116121b857829003601f168201915b50505050508152602001600382015481526020016004820180546121f89061315d565b80601f01602080910402602001604051908101604052809291908181526020018280546122249061315d565b80156122715780601f1061224657610100808354040283529160200191612271565b820191906000526020600020905b81548152906001019060200180831161225457829003601f168201915b5050505050815260200160058201805461228a9061315d565b80601f01602080910402602001604051908101604052809291908181526020018280546122b69061315d565b80156123035780601f106122d857610100808354040283529160200191612303565b820191906000526020600020905b8154815290600101906020018083116122e657829003601f168201915b50505050508152505081526020019060010190612005565b5050505081526020016009820180546123339061315d565b80601f016020809104026020016040519081016040528092919081815260200182805461235f9061315d565b80156123ac5780601f10612381576101008083540402835291602001916123ac565b820191906000526020600020905b81548152906001019060200180831161238f57829003601f168201915b505050505081525050905081565b8280546123c69061315d565b90600052602060002090601f0160209004810192826123e8576000855561242e565b82601f1061240157805160ff191683800117855561242e565b8280016001018555821561242e579182015b8281111561242e578251825591602001919060010190612413565b5061243a9291506124fd565b5090565b604051806020016040528061249f604051806101400160405280606081526020016060815260200160608152602001606081526020016060815260200160608152602001606081526020016060815260200160608152602001606081525090565b905290565b8280548282559060005260206000209081019282156124f1579160200282015b828111156124f157825180516124e19184916020909101906123ba565b50916020019190600101906124c4565b5061243a929150612512565b5b8082111561243a57600081556001016124fe565b8082111561243a576000612526828261252f565b50600101612512565b50805461253b9061315d565b6000825580601f1061254b575050565b601f01602090049060005260206000209081019061256991906124fd565b50565b7f4e487b7100000000000000000000000000000000000000000000000000000000600052604160045260246000fd5b60405160c0810167ffffffffffffffff811182821017156125be576125be61256c565b60405290565b6040516060810167ffffffffffffffff811182821017156125be576125be61256c565b604051610140810167ffffffffffffffff811182821017156125be576125be61256c565b604051601f8201601f1916810167ffffffffffffffff811182821017156126345761263461256c565b604052919050565b600082601f83011261264d57600080fd5b813567ffffffffffffffff8111156126675761266761256c565b61267a601f8201601f191660200161260b565b81815284602083860101111561268f57600080fd5b816020850160208301376000918101602001919091529392505050565b600080604083850312156126bf57600080fd5b823567ffffffffffffffff808211156126d757600080fd5b6126e38683870161263c565b935060208501359150808211156126f957600080fd5b506127068582860161263c565b9150509250929050565b60006020828403121561272257600080fd5b5035919050565b60005b8381101561274457818101518382015260200161272c565b83811115612753576000848401525b50505050565b60008151808452612771816020860160208601612729565b601f01601f19169290920160200192915050565b6020815260006110b66020830184612759565b6000602082840312156127aa57600080fd5b813567ffffffffffffffff8111156127c157600080fd5b6127cd8482850161263c565b949350505050565b600082825180855260208086019550808183028401018186016000805b8581101561288f57601f1980888603018b5283516060815181885261281982890182612759565b838a0151898b0152604093840151898203948a01949094528351808252938a01939092508983019150808a0283018a01875b828110156128775786858303018452612865828751612759565b958c0195938c0193915060010161284b565b509e8a019e98505050948701945050506001016127f2565b509198975050505050505050565b600081518084526020808501808196508284028101915082860160005b85811015612966578284038952815160c081518187526128dc82880182612759565b91505086820151868203888801526128f48282612759565b9150506040808301518783038289015261290e8382612759565b925050506060808301518188015250608080830151878303828901526129348382612759565b9250505060a080830151925086820381880152506129528183612759565b9a87019a95505050908401906001016128ba565b5091979650505050505050565b6000610140825181855261298982860182612759565b915050602083015184820360208601526129a38282612759565b915050604083015184820360408601526129bd8282612759565b915050606083015184820360608601526129d78282612759565b915050608083015184820360808601526129f18282612759565b91505060a083015184820360a0860152612a0b8282612759565b91505060c083015184820360c0860152612a258282612759565b91505060e083015184820360e0860152612a3f82826127d5565b9150506101008084015185830382870152612a5a838261289d565b925050506101208084015185830382870152612a768382612759565b9695505050505050565b60208152600082516020808401526127cd6040840182612973565b600060c08284031215612aad57600080fd5b612ab561259b565b9050813567ffffffffffffffff80821115612acf57600080fd5b612adb8583860161263c565b83526020840135915080821115612af157600080fd5b612afd8583860161263c565b60208401526040840135915080821115612b1657600080fd5b612b228583860161263c565b6040840152606084013560608401526080840135915080821115612b4557600080fd5b612b518583860161263c565b608084015260a0840135915080821115612b6a57600080fd5b50612b778482850161263c565b60a08301525092915050565b60008060408385031215612b9657600080fd5b823567ffffffffffffffff80821115612bae57600080fd5b612bba8683870161263c565b93506020850135915080821115612bd057600080fd5b5061270685828601612a9b565b600067ffffffffffffffff821115612bf757612bf761256c565b5060209081020190565b600082601f830112612c1257600080fd5b81356020612c27612c2283612bdd565b61260b565b82815291810284018101918181019086841115612c4357600080fd5b8286015b84811015612c8357803567ffffffffffffffff811115612c675760008081fd5b612c758986838b010161263c565b845250918301918301612c47565b509695505050505050565b60008060008060008060c08789031215612ca757600080fd5b863567ffffffffffffffff80821115612cbf57600080fd5b612ccb8a838b0161263c565b97506020890135915080821115612ce157600080fd5b612ced8a838b0161263c565b96506040890135915080821115612d0357600080fd5b612d0f8a838b01612c01565b95506060890135915080821115612d2557600080fd5b612d318a838b0161263c565b94506080890135915080821115612d4757600080fd5b612d538a838b0161263c565b935060a0890135915080821115612d6957600080fd5b50612d7689828a0161263c565b9150509295509295509295565b60008060408385031215612d9657600080fd5b823567ffffffffffffffff811115612dad57600080fd5b612db98582860161263c565b925050602083013573ffffffffffffffffffffffffffffffffffffffff81168114612de357600080fd5b809150509250929050565b600082601f830112612dff57600080fd5b81356020612e0f612c2283612bdd565b82815291810284018101918181019086841115612e2b57600080fd5b8286015b84811015612c8357803567ffffffffffffffff80821115612e505760008081fd5b908801906060828b03601f1901811315612e6a5760008081fd5b612e726125c4565b8784013583811115612e845760008081fd5b612e928d8a8388010161263c565b82525060408481013589830152918401359183831115612eb25760008081fd5b612ec08d8a85880101612c01565b908201528652505050918301918301612e2f565b600082601f830112612ee557600080fd5b81356020612ef5612c2283612bdd565b82815291810284018101918181019086841115612f1157600080fd5b8286015b84811015612c8357803567ffffffffffffffff811115612f355760008081fd5b612f438986838b0101612a9b565b845250918301918301612f15565b60008060408385031215612f6457600080fd5b823567ffffffffffffffff80821115612f7c57600080fd5b612f888683870161263c565b93506020850135915080821115612f9e57600080fd5b908401906101408287031215612fb357600080fd5b612fbb6125e7565b823582811115612fca57600080fd5b612fd68882860161263c565b825250602083013582811115612feb57600080fd5b612ff78882860161263c565b60208301525060408301358281111561300f57600080fd5b61301b8882860161263c565b60408301525060608301358281111561303357600080fd5b61303f8882860161263c565b60608301525060808301358281111561305757600080fd5b6130638882860161263c565b60808301525060a08301358281111561307b57600080fd5b6130878882860161263c565b60a08301525060c08301358281111561309f57600080fd5b6130ab8882860161263c565b60c08301525060e0830135828111156130c357600080fd5b6130cf88828601612dee565b60e08301525061010080840135838111156130e957600080fd5b6130f589828701612ed4565b828401525050610120808401358381111561310f57600080fd5b61311b8982870161263c565b8284015250508093505050509250929050565b6020815260006110b66020830184612973565b60008251613153818460208701612729565b9190910192915050565b60028104600182168061317157607f821691505b602082108114156131ab577f4e487b7100000000000000000000000000000000000000000000000000000000600052602260045260246000fd5b50919050565b7f4e487b7100000000000000000000000000000000000000000000000000000000600052603260045260246000fd5b7f4e487b7100000000000000000000000000000000000000000000000000000000600052601160045260246000fd5b600060ff821660ff811415613226576132266131e0565b60010192915050565b815460009081906002810460018083168061324b57607f831692505b6020808410821415613284577f4e487b710000000000000000000000000000000000000000000000000000000086526022600452602486fd5b81801561329857600181146132a9576132d6565b60ff198616895284890196506132d6565b60008a81526020902060005b868110156132ce5781548b8201529085019083016132b5565b505084890196505b509498975050505050505050565b6000828210156132f6576132f66131e0565b500390565b600060001982141561330f5761330f6131e0565b5060010190565b60008219821115613329576133296131e0565b50019056fea26469706673582212208d06dc81902eb5f1cee93322708978dbf7ffa704084d387b29f829a408549ec464736f6c634300080c0033",
  "immutableReferences": {},
  "source": "// SPDX-License-Identifier: MIT\r\npragma solidity ^0.8.0;\r\n\r\ncontract VotingSystem {\r\n    struct Choice {\r\n        string choice;\r\n        uint256 score;\r\n        string[] voters;\r\n    }\r\n    struct EmailList {\r\n        string email;\r\n        string firstName;\r\n        string lastName;\r\n        uint256 voteWeight;\r\n        string voteKey;\r\n        string voteTime;\r\n    }\r\n    struct Pin {\r\n        string voteKey;\r\n        uint256 voteWeight;\r\n        string votedBy;\r\n    }\r\n    struct NewTitle {\r\n        string id;\r\n        string image;\r\n        string durationType;\r\n        string createdBy;\r\n        string link;\r\n        // Pin[] pin;\r\n        string ballotType;\r\n        string invitationType;\r\n        Choice[] choices; // changed to Choice array\r\n        EmailList[] emailList;\r\n        string pollStatus;\r\n    }\r\n\r\n    struct VoteTopic {\r\n        NewTitle newtitle;\r\n    }\r\n\r\n    mapping(string => VoteTopic) public topics;\r\n    string[] public topicIds;\r\n\r\n    function addTopic(string memory _uuid, NewTitle memory _newtitle) public {\r\n        topics[_uuid].newtitle.id = _newtitle.id;\r\n        topics[_uuid].newtitle.image = _newtitle.image;\r\n        topics[_uuid].newtitle.durationType = _newtitle.durationType;\r\n        topics[_uuid].newtitle.createdBy = _newtitle.createdBy;\r\n        topics[_uuid].newtitle.link = _newtitle.link;\r\n        topics[_uuid].newtitle.ballotType = _newtitle.ballotType;\r\n        topics[_uuid].newtitle.invitationType = _newtitle.invitationType;\r\n        topics[_uuid].newtitle.pollStatus = _newtitle.pollStatus;\r\n\r\n        // For dynamic string array pins\r\n        // for (uint i = 0; i < _newtitle.pin.length; i++) {\r\n        //     Pin memory currentPin = _newtitle.pin[i];\r\n        //     topics[_uuid].newtitle.pin.push(\r\n        //         Pin({\r\n        //             voteKey: currentPin.voteKey,\r\n        //             voteWeight: currentPin.voteWeight,\r\n        //             votedBy: currentPin.votedBy\r\n        //         })\r\n        //     );\r\n        // }\r\n\r\n        // For dynamic struct array choices\r\n        for (uint i = 0; i < _newtitle.choices.length; i++) {\r\n            Choice memory currentChoice = _newtitle.choices[i];\r\n            topics[_uuid].newtitle.choices.push(\r\n                Choice({\r\n                    choice: currentChoice.choice,\r\n                    score: currentChoice.score,\r\n                    voters: currentChoice.voters\r\n                })\r\n            );\r\n        }\r\n        for (uint i = 0; i < _newtitle.emailList.length; i++) {\r\n            EmailList memory currentEmailList = _newtitle.emailList[i];\r\n            topics[_uuid].newtitle.emailList.push(\r\n                EmailList({\r\n                    email: currentEmailList.email,\r\n                    firstName: currentEmailList.firstName,\r\n                    lastName: currentEmailList.lastName,\r\n                    voteWeight: currentEmailList.voteWeight,\r\n                    voteKey: currentEmailList.voteKey,\r\n                    voteTime: currentEmailList.voteTime\r\n                })\r\n            );\r\n        }\r\n\r\n        topicIds.push(_uuid);\r\n    }\r\n\r\n    function addUserToPoll(\r\n        string memory _pollId,\r\n        EmailList memory _newUser\r\n    ) public {\r\n        // Ensure that the poll exists\r\n        require(\r\n            bytes(topics[_pollId].newtitle.id).length > 0,\r\n            \"Poll does not exist\"\r\n        );\r\n\r\n        // You can add additional checks here, for example, to ensure that the user\r\n        // adding a new email is authorized to do so, or to check if the email already exists\r\n\r\n        // Add the new user to the poll's email list\r\n        topics[_pollId].newtitle.emailList.push(_newUser);\r\n    }\r\n\r\n    function updateStatus(\r\n        string memory _uuid,\r\n        string memory _pollStatus\r\n    ) public {\r\n        topics[_uuid].newtitle.pollStatus = _pollStatus;\r\n    }\r\n\r\n    function bytes32ToString(\r\n        bytes32 _bytes32\r\n    ) public pure returns (string memory) {\r\n        uint8 i = 0;\r\n        while (i < 32 && _bytes32[i] != 0) {\r\n            i++;\r\n        }\r\n        bytes memory bytesArray = new bytes(i);\r\n        for (i = 0; i < 32 && _bytes32[i] != 0; i++) {\r\n            bytesArray[i] = _bytes32[i];\r\n        }\r\n        return string(bytesArray);\r\n    }\r\n\r\n    mapping(string => mapping(address => bool)) public hasVoted;\r\n    mapping(string => mapping(string => bool)) public hasPinVoted;\r\n    event Voted(\r\n        string uuid,\r\n        string email,\r\n        string choice,\r\n        string pin,\r\n        string invitationType,\r\n        string voteTime\r\n    );\r\n\r\n    function voteForChoice(\r\n        string memory _uuid,\r\n        string memory _email,\r\n        string[] memory _choices,\r\n        string memory _pin,\r\n        string memory _invitationType,\r\n        string memory _voteTime\r\n    ) public {\r\n        // require(!hasVoted[_email][msg.sender], \"You have already voted!\");\r\n        // require(\r\n        //     !hasPinVoted[_email][_pin],\r\n        //     \"This PIN has already been used to vote!\"\r\n        // );\r\n\r\n        // // Hash the pin\r\n        // bytes32 hash = keccak256(abi.encodePacked(_pin));\r\n        // string memory hashedPin = bytes32ToString(hash);\r\n\r\n        // // Mark the PIN as used for this topic\r\n        // hasPinVoted[_email][hashedPin] = true;\r\n\r\n        bool isEmailFound = false;\r\n        for (uint i = 0; i < topics[_uuid].newtitle.emailList.length; i++) {\r\n            if (\r\n                keccak256(\r\n                    abi.encodePacked(topics[_uuid].newtitle.emailList[i].email)\r\n                ) == keccak256(abi.encodePacked(_email))\r\n            ) {\r\n                if (topics[_uuid].newtitle.emailList[i].voteWeight == 1) {\r\n                    isEmailFound = true;\r\n                    topics[_uuid].newtitle.emailList[i].voteWeight -= 1;\r\n                    topics[_uuid].newtitle.emailList[i].voteTime = _voteTime;\r\n                }\r\n                break;\r\n            }\r\n        }\r\n        // bool isKeyFound = false;\r\n        // for (uint i = 0; i < topics[_uuid].newtitle.pin.length; i++) {\r\n        //     if (\r\n        //         keccak256(\r\n        //             abi.encodePacked(topics[_uuid].newtitle.pin[i].voteKey)\r\n        //         ) == keccak256(abi.encodePacked(_pin))\r\n        //     ) {\r\n        //         if (topics[_uuid].newtitle.pin[i].voteWeight == 1) {\r\n        //             isKeyFound = true;\r\n        //             topics[_uuid].newtitle.pin[i].voteWeight -= 1;\r\n        //             topics[_uuid].newtitle.pin[i].votedBy = _email;\r\n        //         }\r\n        //         break;\r\n        //     }\r\n        // }\r\n        // Find the choice and update its score\r\n\r\n        for (uint i = 0; i < topics[_uuid].newtitle.choices.length; i++) {\r\n            for (uint v = 0; v < _choices.length; v++) {\r\n                if (\r\n                    keccak256(\r\n                        abi.encodePacked(\r\n                            topics[_uuid].newtitle.choices[i].choice\r\n                        )\r\n                    ) == keccak256(abi.encodePacked(_choices[v]))\r\n                ) {\r\n                    if (\r\n                        keccak256(abi.encodePacked(_invitationType)) ==\r\n                        keccak256(abi.encodePacked(\"email\")) &&\r\n                        isEmailFound\r\n                    ) {\r\n                        topics[_uuid].newtitle.choices[i].score += 1;\r\n                        topics[_uuid].newtitle.choices[i].voters.push(_email);\r\n                    } else if (\r\n                        keccak256(abi.encodePacked(_invitationType)) ==\r\n                        keccak256(abi.encodePacked(\"pincode\"))\r\n                        // isKeyFound\r\n                    ) {\r\n                        topics[_uuid].newtitle.choices[i].score += 1;\r\n                        topics[_uuid].newtitle.choices[i].voters.push(_email);\r\n                    }\r\n\r\n                    break;\r\n                }\r\n            }\r\n        }\r\n\r\n        // Mark this address as voted for this topic\r\n        // hasVoted[_email][msg.sender] = true;\r\n    }\r\n\r\n    function getTopic(\r\n        string memory _uuid\r\n    ) public view returns (VoteTopic memory) {\r\n        return topics[_uuid];\r\n    }\r\n\r\n    function getTotalTopics() public view returns (uint) {\r\n        return topicIds.length;\r\n    }\r\n}\r\n",
  "sourcePath": "C:\\FinalProject_Voting_Blockchain_system\\backend\\truffle\\contracts\\VotingSystem.sol",
  "compiler": {
    "name": "solc",
    "version": "0.8.12+commit.f00d7308.Emscripten.clang"
  },
  "schemaVersion": "3.4.16",
  "updatedAt": "2024-01-24T23:11:01.547Z",
  "networkType": "ethereum",
  "devdoc": {
    "kind": "dev",
    "methods": {},
    "version": 1
  },
  "userdoc": {
    "kind": "user",
    "methods": {},
    "version": 1
  }
}